:020000040800F2
:10000000D80400209D010008171F0008231E0008C7
:10001000151F0008A903000829200008000000009F
:100020000000000000000000000000003B1F00086E
:100030006304000800000000391F00083D1F00088D
:10004000B7010008B7010008B7010008B7010008B0
:10005000B7010008B7010008B7010008B7010008A0
:10006000B7010008B7010008B7010008B701000890
:10007000B7010008B7010008B7010008B701000880
:10008000B7010008B701000869020008B7010008BD
:10009000B7010008B7010008B7010008B701000860
:1000A000B7010008B7010008B7010008B701000850
:1000B000B7010008B7010008B7010008B701000840
:1000C000B7010008B7010008B7010008B701000830
:1000D000B7010008B7010008B7010008B701000820
:1000E000B7010008B7010008B7010008B701000810
:1000F000B7010008B7010008B7010008B701000800
:10010000B7010008B7010008B7010008B7010008EF
:10011000B7010008B7010008B7010008B7010008DF
:10012000AD030008B7010008B7010008B7010008D7
:10013000B7010008B7010008B7010008B7010008BF
:10014000B7010008B7010008B7010008B7010008AF
:10015000B7010008B7010008B7010008B70100089F
:10016000B7010008B7010008B7010008B70100088F
:10017000B7010008B7010008B7010008000000003F
:10018000B7010008B7010008DFF80CD000F018F83C
:100190000048004749200008D8040020064880474E
:1001A00006480047FEE7FEE7FEE7FEE7FEE7FEE75C
:1001B000FEE7FEE7FEE7FEE7D51F0008890100081D
:1001C000064C074D06E0E06840F0010394E80700A4
:1001D00098471034AC42F6D3FFF7DAFF98200008B6
:1001E000B820000810B50146806B026C12F0500F69
:1001F00005D0806BC26CBDE8104008461047016C0A
:1002000041F40071016401688A6812F0405F17D1FF
:100210008269AAB9CA6A12F4700F02D08A685205BC
:100220000ED44A6822F020024A60016C21F48071E9
:100230000164016CC90403D4016C41F00101016443
:1002400000F0BAF910BD10B5806B40210164416C1B
:1002500041F00401416400F0B1F910BD10B5806BAC
:1002600000F0ABF910BD0000014800F0A8B9000093
:10027000080000204A4910B5D1F8042322F4403286
:10028000C1F80423D1F8042343681A43C1F80423B6
:1002900001684A6822F480724A6001684A6803690A
:1002A00042EA03224A6001684A6822F040724A60CA
:1002B00001684A6883681A434A6001688A6822F4C0
:1002C00000628A6001688A68C3681A438A60816A2A
:1002D0006FF07062D14201688A6822F070628A60B1
:1002E00001688A680CD0836A1A438A6001688A6848
:1002F00022F040528A6001688A68C36A1A4301E0AA
:1003000022F040528A6001688A6822F002028A6004
:1003100001688A68836942EA43028A60016A0029A7
:1003200001684A6815D042F400624A6001684A6870
:1003300022F460424A6001684B684FF46044426AAC
:1003400094FAA4F4B4FA84F4521EA24013434B600E
:1003500002E022F400624A600168CA6A22F4700274
:10036000CA620168CA6A838B0E4C04EB03531A43BA
:10037000CA6201688A6822F400728A6001688A6829
:10038000036B42EA43228A6001688A6822F4806231
:100390008A6001688A68406942EA8020886010BDEE
:1003A000002001400000F0FFFEE7000010B5044807
:1003B00000F094FABDE81040024800F0CBBF000006
:1003C000080000205000002001681823CAB2103A2B
:1003D000B2FBF3F2054B6FF30901032A9B5CC36583
:1003E00000D9091D8165084670470000902000086B
:1003F00010B5014600208B698A6A4FF0C07453B172
:10040000B3F5005F15D072B1012A0CD0022A0AD0D0
:10041000032A09D104E01AB1012A06D0022A03D125
:10042000C96AC90100D5012010BDC96AA142FAD02C
:1004300010BD002AF7D0012AF2D0022AF3D0032AF5
:10044000F3D010BD10B5046863608368402B036867
:1004500003D099600068C26010BD9A600068C160F6
:1004600010BD7047FEE7704778B50024009490F8FF
:100470003C20012A19D0012280F83C200A68072379
:100480000568092A13D9EE680A3A02EB4202934042
:100490009E43EE600B788A680A3B03EB43039A4065
:1004A0000368DD682A43DA6010E0022078BD2E6917
:1004B00002EB420293409E432E610A788B6802EB66
:1004C00042029340026815692B4313614A681F2357
:1004D000072A13D205686E6B521E02EB820293400C
:1004E0009E436E630B790A885B1E92B203EB830313
:1004F0009A4003685D6B2A435A6327E005680D2A1A
:1005000012D22E6BD21F02EB820293409E432E63C7
:100510000B790A88DB1F92B203EB83039A400368CE
:100520001D6B2A431A6311E0EE6A0D3A02EB820258
:1005300093409E43EE620B790A880D3B92B203EB27
:1005400083039A400368DD6A2A43DA62174A036824
:10055000934208D10B68122B05D1D2F8043343F42F
:100560008003C2F80433036893421AD10B68102B3E
:1005700001D0112B15D1D2F8043343F40003C2F893
:100580000433096810290CD109490A4A0968B1FBEA
:10059000F2F101EB8101490000E0491E00910029C0
:1005A000FBD180F83C40002078BD000000200140D5
:1005B0000400002040420F0070477047704770B53C
:1005C0000446006801684268C1F34001C2F340126A
:1005D00051B34AB3216CC90603D4216C41F40071B4
:1005E0002164816811F0405F17D1A169A9B9C16A7E
:1005F00011F4700F02D0816849050ED4416821F0D2
:1006000020014160206C20F480702064206CC004C4
:1006100003D4206C40F0010020642046FFF7CCFF9B
:1006200021686FF012000860206801684268C1F319
:100630008001C2F3C01289B382B3216CC90603D40E
:10064000216C41F400512164816811F4401F1ED1D6
:10065000816B11F4401F02D08168490517D44168AD
:10066000490514D4816811F0405F10D1A16971B9B6
:10067000416821F080014160206C20F480502064AA
:10068000206CC00503D4206C40F00100206420469B
:10069000FFF7E9FE21686FF00C0008602068016830
:1006A000426811F0010FC2F380120ED06AB10068E7
:1006B000C0070AD0206C40F480302064204600F04F
:1006C00046F821686FF00100086020680168426800
:1006D000C1F34011C2F3806200290DD0002A0BD073
:1006E000616C41F0020161646FF0200505602046F5
:1006F000FFF764FF2068056070BD70B504004FF01F
:10070000000503D0206C002610B107E0012070BD69
:10071000666484F83C60204600F01AF8206CC0063D
:1007200010D4206C20F4885040F002002064204651
:10073000FFF7A0FD6664206C20F0020040F001008D
:10074000206400E0012584F83C60284670BD7047B5
:1007500070B5064600681C4986B0884231D11B48F6
:100760000025016841F4807101600068694600F469
:100770008070059003200090CDE90105144800F039
:1007800025FF154C1348C4E900050015A560C4E910
:100790000350400060618000A0614011C4E907057A
:1007A0002046656200F0AAFE08B1FFF75BFEB46365
:1007B000002211461220A66301F054F8122001F025
:1007C00045F806B070BD00000020014044380240EA
:1007D000000002401064024050000020F8B50D46B1
:1007E00000210446009190F83C00012807D0012028
:1007F00084F83C0020688668F60702D011E00220E9
:10080000F8BD866846F0010686602E482E4E0068C8
:10081000B0FBF6F000EB400000E0401E0090002826
:10082000FBD120688668F60749D0266C40F2016744
:10083000BE4346F4807626644068400505D5206CAA
:1008400020F4005040F480502064206CC00404D593
:10085000606C20F00600606400E0616484F83C1085
:10086000A16B1A48C863A16B19480864A16B1948A9
:10087000C86421686FF0220008602068416841F078
:10088000806141602068816841F4807181600093DB
:10089000216813462A464C31A06B00F04BF80E49F4
:1008A000D1F80403C006206801D0884207D18168CE
:1008B00011F0405F03D1816841F0804181600020E8
:1008C000F8BD00000400002040420F00E5010008D0
:1008D0005D020008470200080020014010B50446F0
:1008E000002094F83C1001290CD0012184F83C1020
:1008F00021688A6822F001028A6021688A68D2072A
:1009000002D013E0022010BD886820F48070886057
:10091000A06B00F0D7FC21684A6822F080624A6030
:10092000216C21F4885141F001012164002184F8F7
:100930003C1010BD2DE9F84F044600200A9D0090A0
:10094000A0684FF4807A802815D0E06BA8B1E06CE5
:1009500098B194F83400012813D0012084F83400B1
:1009600094F835600020012E0DD084F83400022068
:100970000090BDE8F88F504600E0402060650120FF
:10098000F7E70220F5E7022684F835606065206805
:10099000066846F480260660206803612B462046E0
:1009A000FFF750FDDFF800844FF4006B4FF4001E9A
:1009B000FE48FD4AFD4BFC4DFC4EFB4FDFF8ECC3FF
:1009C000DFF8E4932168483A603318351836303F31
:1009D0000CF1780C09F13009414534D9814205D038
:1009E000914203D0994201D0A94201D1202125E0B2
:1009F000B14205D0B94203D0614501D0494501D18A
:100A000059461BE0DFF8A48308F13008414511D0B6
:100A1000DFF89483A8F1180841450BD0DFF88C83E8
:100A200008F19008414505D0DFF87C8308F14808BB
:100A3000414501D1714601E04FF00061DFF8688364
:100A4000A8F14C0839E0DFF8648308F1A8084145B3
:100A500036D9814205D0914203D0994201D0A942B2
:100A600001D1202125E0B14205D0B94203D0614532
:100A700001D0494501D159461BE0DFF8308308F128
:100A80003008414511D0DFF82083A8F1180841450E
:100A90000BD0DFF8188308F19008414505D0DFF846
:100AA000088308F14808414501D1714601E04FF043
:100AB0000061DFF8F482A8F15008C8F8001072E075
:100AC000DFF8E88208F14808414536D9814205D06F
:100AD000914203D0994201D0A94201D1202125E0C1
:100AE000B14205D0B94203D0614501D0494501D199
:100AF00059461BE0DFF8B48208F13008414511D0B7
:100B0000DFF8A482A8F1180841450BD0DFF89C82D9
:100B100008F19008414505D0DFF88C8208F14808BB
:100B2000414501D1714601E04FF00061DFF87C8260
:100B3000A8F11008C8F80C1035E0814205D09142A8
:100B400003D0994201D0A94201D1202125E0B14230
:100B500005D0B94203D0614501D0494501D159467C
:100B60001BE0DFF8488208F13008414511D0DFF87A
:100B70003882A8F1180841450BD0DFF8308208F11F
:100B80009008414505D0DFF8208208F1480841452A
:100B900001D1714601E04FF00061DFF81082A8F149
:100BA0001008C8F80810DFF8008221684FF4806B45
:100BB0004FF4801E414534D9814205D0914203D083
:100BC000994201D0A94201D1102125E0B14205D0BE
:100BD000B94203D0614501D0494501D159461BE0D6
:100BE000DFF8C88108F13008414511D0DFF8B8813D
:100BF000A8F1180841450BD0DFF8B08108F1900842
:100C0000414505D0DFF8A08108F14808414501D1F0
:100C1000714601E04FF08061DFF88C81A8F14C084B
:100C200039E0DFF8888108F1A808414536D98142CA
:100C300005D0914203D0994201D0A94201D110219F
:100C400025E0B14205D0B94203D0614501D0494504
:100C500001D159461BE0DFF8548108F130084145C5
:100C600011D0DFF84481A8F1180841450BD0DFF816
:100C70003C8108F19008414505D0DFF82C8108F14E
:100C80004808414501D1714601E04FF08061DFF82D
:100C90001881A8F15008C8F8001072E0DFF80C8144
:100CA00008F14808414536D9814205D0914203D028
:100CB000994201D0A94201D1102125E0B14205D0CD
:100CC000B94203D0614501D0494501D159461BE0E5
:100CD000DFF8D88008F13008414511D0DFF8C8802E
:100CE000A8F1180841450BD0DFF8C08008F1900842
:100CF000414505D0DFF8B08008F14808414501D1F1
:100D0000714601E04FF08061DFF8A080A8F1100883
:100D1000C8F80C1035E0814205D0914203D09942C9
:100D200001D0A94201D1102125E0B14205D0B9423C
:100D300003D0614501D0494501D159461BE0DFF898
:100D40006C8008F13008414511D0DFF85C80A8F1D3
:100D5000180841450BD0DFF8548008F19008414550
:100D600005D0DFF8448008F14808414501D17146BB
:100D700001E04FF08061DFF83480A8F11008C8F876
:100D80000810DFF8248021684FF4007B4FF4002E18
:100D9000414534D9814205D0914203D0994201D0D6
:100DA000A94205D1082125E05864024010600240A4
:100DB000B14205D0B94203D0614501D0494501D1C6
:100DC000594617E0DFF8F08441450FD0DFF8EC8496
:100DD00041450BD0DFF8E08408F16008414505D0BB
:100DE000DFF8D88408F16008414501D1714601E07F
:100DF0004FF00071DFF8C484A8F1340835E0DFF863
:100E0000B88408F17808414532D9814205D0914231
:100E100003D0994201D0A94201D1082121E0B14279
:100E200005D0B94203D0614501D0494501D15946A9
:100E300017E0DFF8848441450FD0DFF88084414516
:100E40000BD0DFF8748408F16008414505D0DFF865
:100E50006C8408F16008414501D1714601E04FF012
:100E60000071DFF85884A8F13808C8F800106AE06B
:100E7000DFF8448408F11808414532D9814205D091
:100E8000914203D0994201D0A94201D1082121E029
:100E9000B14205D0B94203D0614501D0494501D1E5
:100EA000594617E0DFF8108441450FD0DFF80C8475
:100EB00041450BD0DFF8008408F16008414505D0BA
:100EC000DFF8F88308F16008414501D1714601E07F
:100ED0004FF00071DFF8E083A8F14008C8F80C106B
:100EE00031E0814205D0914203D0994201D0A9421C
:100EF00001D1082121E0B14205D0B94203D06145BA
:100F000001D0494501D1594617E0DFF8AC8341458E
:100F10000FD0DFF8A88341450BD0DFF89C8308F1A0
:100F20006008414505D0DFF8948308F16008414529
:100F300001D1714601E04FF00071DFF87C83A8F128
:100F40004008C8F80810DFF87483216808F1180811
:100F5000DFF86CB34FF4802E414530D9814205D083
:100F6000914203D0994201D0A94201D1594621E0D2
:100F7000B14205D0B94203D0614501D0494501D104
:100F8000514617E0DFF8308341450FD0DFF82C835E
:100F900041450BD0DFF8208308F16008414505D0BA
:100FA000DFF8188308F16008414501D1714601E07E
:100FB0004FF08071DFF80483A8F1340835E0DFF8E2
:100FC000F88208F17808414532D9814205D0914232
:100FD00003D0994201D0A94201D1594621E0B14242
:100FE00005D0B94203D0614501D0494501D15146F0
:100FF00017E0DFF8C48241450FD0DFF8C0824145D9
:101000000BD0DFF8B48208F16008414505D0DFF865
:10101000AC8208F16008414501D1714601E04FF012
:101020008071DFF89882A8F13808C8F800106AE0EB
:10103000DFF8848208F11808414532D9814205D091
:10104000914203D0994201D0A94201D1594621E0F1
:10105000B14205D0B94203D0614501D0494501D123
:10106000514617E0DFF8508241450FD0DFF84C823F
:1010700041450BD0DFF8408208F16008414505D0BA
:10108000DFF8388208F16008414501D1714601E07E
:101090004FF08071DFF82082A8F14008C8F80C10EA
:1010A00031E0814205D0914203D0994201D0A9425A
:1010B00001D1594621E0B14205D0B94203D0614582
:1010C00001D0494501D1514617E0DFF8EC81414597
:1010D0000FD0DFF8E88141450BD0DFF8DC8108F163
:1010E0006008414505D0DFF8D48108F1600841452A
:1010F00001D1714601E04FF08071DFF8BC81A8F1A9
:101100004008C8F80810DFF8B481DFF8B4A12168FE
:1011100008F11808AAF1030A4FF4803B4FF4800E3F
:10112000414527D9814205D0914203D0994201D04F
:10113000A94201D150461AE0B14205D0B94203D0CC
:10114000614501D0494501D1402010E05A48814213
:101150000AD05A48814207D057486030814203D0B4
:1011600056486030814201D1584600E070465349EC
:1011700034392CE0DFF8408108F17808414528D95E
:10118000814205D0914203D0994201D0A94201D1B8
:1011900050461AE0B14205D0B94203D0614501D0B2
:1011A000494501D1402010E0434881420AD04348DC
:1011B000814207D040486030814203D03F486030D0
:1011C000814201D1584600E070463C4938390860F8
:1011D00056E0DFF8E48008F11808414528D981423B
:1011E00005D0914203D0994201D0A94201D1504685
:1011F0001AE0B14205D0B94203D0614501D049455A
:1012000001D1402010E02C4881420AD02B48814275
:1012100007D029486030814203D02848603081429D
:1012200001D1584600E0704623494039C86027E0A4
:10123000814205D0914203D0994201D0A94201D107
:1012400050461AE0B14205D0B94203D0614501D001
:10125000494501D1402010E0174881420AD0174883
:10126000814207D014486030814203D01348603077
:10127000814201D1584600E070460F4940398860EC
:101280002068016841F0160101602068416941F061
:1012900080014161206C08B9A06C20B12068016810
:1012A00041F0080101602068016841F0010101601E
:1012B0000098BDE8F88F00004060024040640240A2
:1012C000040080002DE9F0410446876D00F056FAD5
:1012D000064694F835000025022806D08020606577
:1012E00084F834500120BDE8F0812068016821F0C5
:1012F000160101602068416921F080014161206C84
:1013000008B9A06C20B12068016821F008010160D3
:101310002068016821F0010101600BE000F02EFA65
:10132000801B052806D92020606504F8345F03205F
:101330006070D8E720680068C007EFD194F85C10AF
:101340003F208840B86004F8345F012060700020BE
:10135000C9E700002DE9F84304464FF00008CDF836
:10136000008064484FF41651A56D0068B0FBF1F79A
:101370002E6894F85C10082000FA01F131420FD079
:1013800021680A6852070BD50A6822F004020A6035
:1013900094F85C108840A860606D40F001006065C2
:1013A00094F85C1054488840304208D0216849695C
:1013B000090604D5A860606D40F0020060654E48E3
:1013C00094F85C10C01C8840304208D0216809683D
:1013D000890704D5A860606D40F00400606594F84A
:1013E0005C1010208840304218D021680968090735
:1013F00014D5A86020680168490304D5006800037B
:1014000008D5A16C07E00168C90503D4016821F083
:1014100008010160216C09B12046884794F85C10EE
:101420002020884030424FF0010631D02168096801
:10143000C9062DD5A86094F83500052820680168F4
:1014400006D0490347D5006800031DD4616C1CE039
:1014500021F0160101602068416921F0800141619D
:10146000206C08B9A06C20B12068016821F0080147
:10147000016094F85C103F208840A86084F83480B4
:1014800084F83560216D1FE0E16B09B12046884783
:10149000606D00282BD0606DC00714D0052084F843
:1014A00035002068016821F0010101600098401CAE
:1014B0000090B84203D820680068C007F6D184F8CD
:1014C000348084F83560E16C002910D001B02046EA
:1014D000BDE8F04308470168C905D5D4016821F08B
:1014E0001001016084F8348084F83560CCE7BDE8F1
:1014F000F883000004000020010080002DE9F04185
:10150000044600F03BF906465CB1002584F83450EF
:10151000022084F835002068016821F00101016093
:101520000DE00120BDE8F08100F028F9801B0528BE
:1015300005D920206065032084F83500F2E7206893
:101540000068C007F0D1226811681F480140D4E943
:1015500001031843D4E9033633431843636918433E
:10156000A3691843E3691843236A18430843616A6F
:10157000042903D1D4E90B131943084310602068F0
:101580004069666A20F0070130460E4301270428AF
:101590000AD1A06A06432046FEF72AFF20B1402068
:1015A000606584F83570BCE7206846612046FEF728
:1015B0000BFF94F85C203F2191408160656584F8C1
:1015C00035700020AEE700003F8010F02DE9F84FA5
:1015D000DFF87CB100224FF001084FF0030A4FF012
:1015E0000F090BF1040E00BF0B6808FA02F4234048
:1015F000A3426ED14D68022D01D0122D0ED1D50817
:1016000000EB850CDCF820505607F70E09FA07F6B8
:10161000B5430E69BE402E43CCF8206006685500E5
:101620000F790AFA05FC07F0030726EA0C06AF401B
:10163000374307604E68012E05D0022E03D0112ECD
:1016400001D0122E0ED18668CF6826EA0C06AF4074
:10165000374387604668A6430C79C4F3001494406E
:1016600034434460C6688C6826EA0C06AC403443B8
:10167000C4604C68E40065D5364C256845F4804567
:101680002560246822F0030504F480440094324C61
:101690002E19D6F8084895072F0F09FA07F5AC431D
:1016A0002E4DA84201D1002524E02D4DA84201D1A4
:1016B00001251FE02B4DA84201D102251AE02A4D39
:1016C000A84201D1032515E0284DA84202D10425E6
:1016D00010E037E0264DA84201D105250AE0254D4E
:1016E000A84201D1062505E0234DA84201D10725D6
:1016F00000E00825BD402543C6F80858DBF8004047
:101700005D464E689C43F60300D51C432C60DEF812
:10171000004075464E689C43B60300D51C432C60C0
:101720000B4D08352C684E689C43F60200D51C43CF
:101730002C60074D0C352C684E689C43B60200D5D2
:101740001C432C60521C102AFFF44EAFBDE8F88FEA
:10175000003C01404438024000300140000002409B
:101760000004024000080240000C02400010024049
:101770000014024000180240001C024001480068AA
:10178000704700000000002002480168491C016009
:1017900070470000000000200B4810B5016841F4BC
:1017A00000710160016841F480610160016841F4E9
:1017B00080710160032000F075F8002000F006F849
:1017C00000F018F8002010BD003C024010B504469F
:1017D00007484FF47A710068B0FBF1F000F009FBA4
:1017E00000222146501E00F03DF8002010BD0000F0
:1017F0000400002010B5032000F054F80022114628
:101800006FF00B0000F02EF8002211466FF00A0076
:1018100000F028F8002211466FF0090000F022F8CD
:1018200000221146501F00F01DF800221146101F23
:1018300000F018F800221146901E00F013F8002264
:10184000BDE810401146501E00F00CB800F01F0219
:10185000012191404009800000F1E020C0F8001112
:1018600070470000F0B40E4B1B680C46C3F3022314
:10187000C3F10705042D00D90425191D072901D23C
:10188000002300E0DB1E012606FA05F1491E214077
:1018900099409E40761E16403143F0BC00F03CBBA0
:1018A0000CED00E0064900F0070208684FF6FF0360
:1018B000184040EA0220034A1043086070470000C5
:1018C0000CED00E00000FA052DE9F047DFF8649127
:1018D00005460F46D9F8000000F00F01F8B2804627
:1018E000B94208D2014689F80010D9F8000000F08A
:1018F0000F00B84274D128784F4C800705D5206876
:10190000A96820F0F000084320602878C00759D06B
:1019100049496868083901281AD002281BD00328D1
:1019200019D00968890700295ADA216821F00301D2
:1019300001432160FFF722FF6968064641F28830C3
:10194000012911D002291DD00329824627D035E074
:1019500009688903E7E709688901E4E7FFF70EFFF3
:10196000811B514501D926E082462068C0F38100E1
:101970000128F3D126E000BFFFF700FF811B51458E
:1019800001D918E082462068C0F381000228F3D113
:1019900018E000BFFFF7F2FE811B51450BD820680D
:1019A000C0F381000328F5D10CE000BFFFF7E6FE8D
:1019B000811B514502D90320BDE8F087206810F053
:1019C0000C0FF3D1D9F80010484601F00F01B942CD
:1019D00008D980F80080006800F00F00B84201D0FC
:1019E0000120E9E72878400705D52068E96820F458
:1019F000E050084320602878000706D52068296950
:101A000020F4604040EAC100206000F021F8216825
:101A1000F02292FAA2F201F0F001B2FA82F2D14081
:101A2000064A515CC840064908600020FFF7CEFE18
:101A30000020C1E7003C0240083802408020000836
:101A400004000020014800687047000004000020E6
:101A500030B51948006810F00C01184812D0184C25
:101A600004290ED008290DD11349091F0A6802F074
:101A70003F030A68550247F6C07204D5B4FBF3F081
:101A800003E0204630BDB0FBF3F00B68096813405B
:101A900092FAA2F2B2FA82F2D34058434FF44032A3
:101AA00092FAA2F201F44031B2FA82F2D140491C1A
:101AB0004900B0FBF1F030BD083802400024F400CA
:101AC00040787D012DE9F84F0546DFF8FC9200785B
:101AD000A9F1040BC007ABF1040449D0D9F80010F8
:101AE0004846C1F38101012908D00068C0F3810094
:101AF00002280AD1DBF80000400206D520688003E6
:101B000036D5686800286ED032E06868B0F5803F4E
:101B100010D0B0F5A02F206810D020F480302060C5
:101B2000206820F4802020606868A0B1FFF726FEBE
:101B300006460CE0206840F48030F4E740F4802052
:101B40002060F7E7FFF71AFE801B642871D8206831
:101B50008003F7D50CE0FFF711FE064605E000BF55
:101B6000FFF70CFE801B6428F0D820688003F7D4B0
:101B70002878964F80074FF0010A4FF0000841D5B2
:101B8000D9F80010484611F00C0F08D00068C0F3D7
:101B9000810002280AD1DBF80000400206D4206848
:101BA000800713D5E86801281DD10FE0E868D8B197
:101BB000C7F800A0FFF7E2FD064604E0FFF7DEFDF0
:101BC000801B0228C2D820688007F7D52068F82239
:101BD00092FAA2F22969B2FA82F220F0F80091405A
:101BE000084320600EE0ECE0C7F80080FFF7C6FD78
:101BF000064604E0FFF7C2FD801B022819D82068C2
:101C00008007F7D42878000724D57148696989B11D
:101C1000C0F800A0FFF7B2FD064604E0FFF7AEFDF6
:101C2000801B022805D868486C3000688007F5D50D
:101C300010E07AE0C0F80080FFF7A0FD064604E05F
:101C4000FFF79CFD801B02286FD85F486C3000684E
:101C50008007F5D42878400753D55B4838300168B1
:101C600041F080510160006800F0805000905948B8
:101C7000016841F480710160FFF780FD064604E0D1
:101C8000FFF77CFD801B02284FD852480068C00532
:101C9000F6D54D4EA868683601280FD00528306863
:101CA00010D020F001003060306820F00400306077
:101CB000A868B8B1FFF762FD00900FE0306840F00F
:101CC0000100F4E740F004003060F7E7FFF756FD4D
:101CD0000099411A41F2883081426AD83068800701
:101CE000F4D50EE0FFF74AFD009007E0FFF746FD50
:101CF0000099411A41F2883081425AD830688007F1
:101D0000F4D4A869E8B3D9F80010C1F3810102291D
:101D100057D00228C7F8608003D0FFF72FFD054693
:101D20004AE0FFF72BFD064605E042E0FFF726FDFF
:101D3000801B02283DD820688001F7D4D5E907012F
:101D4000084347F6C07292FAA2F2696AB2FA82F2C6
:101D50009140AA6A4FF0FF3303EB52024FF4403335
:101D600093FAA3F3B3FA83F39A40114308434FF075
:101D7000706292FAA2F2E96AB2FA82F291400843E2
:101D800000E01CE0CBF80000C7F860A0FFF7F6FC0D
:101D9000054604E0FFF7F2FC401B022809D8206842
:101DA0008001F7D50BE000BFFFF7E8FC401B0228DD
:101DB00002D90320BDE8F88F20688001F4D4002008
:101DC000F8E70120F6E7000008380240000047422B
:101DD000800E4742007000404FF0E021042808695F
:101DE00003D020F004000861704740F00400FAE7D7
:101DF000704710B5401EB0F1807F01D3012010BDA7
:101E00004FF0E02460610F21601700F085F800209A
:101E1000A06107202061002010BD10B5FFF7E8FF8A
:101E200010BDFEE77FB5274825490025C0E900150C
:101E30008560056124490562C0E90A15012405266B
:101E4000C560C0E9064604634461FEF756FC08B16C
:101E5000FEF708FB10208DE8310069461948FEF7AF
:101E600003FB08B1FEF7FEFA11200090022001905A
:101E700069461448FEF7F8FA08B1FEF7F3FA1220A3
:101E800000900320019069460E48FEF7EDFA08B174
:101E9000FEF7E8FA0420CDE9005069460948FEF74C
:101EA000E3FA08B1FEF7DEFACDE9004669460548D7
:101EB000FEF7DAFA002801D0FEF7D4FA7FBD000061
:101EC00000200140080000200100000F094808B56B
:101ED000016841F4800101600068002200F4800084
:101EE000009011463820FFF7BDFCBDE808403820BF
:101EF000FFF7ACBC30380240054808B5016841F036
:101F000001010160006800F00100009008BD0000C0
:101F100030380240FEE770470907090E002806DA4C
:101F200000F00F0000F1E02080F8141D704700F170
:101F3000E02080F8001470477047704710B5FFF735
:101F400023FCBDE81040FFF768BF000010B51F4834
:101F500092B00024016841F080510160006800F0F7
:101F6000805011901A48016841F480410160006876
:101F7000069400F48040119002200090012003900C
:101F8000102004906846FFF79DFD00B1FEE70F208A
:101F9000CDE90C040E940F9400210CA81094FFF7C7
:101FA00093FC00B1FEE7FFF74DFD4FF47A71B0FBF3
:101FB000F1F0FFF71EFF0420FFF70EFF002211468D
:101FC000501EFFF74FFC12B010BD00004038024019
:101FD000007000401048016841F4700101600F4832
:101FE000016841F0010101600C4A002108321160D2
:101FF00002680B4B1A400260031D0A4A1A6002680D
:1020000022F48022026005480C3001600249580623
:10201000803908607047000088ED00E00038024019
:10202000FFFFF6FE10300024FEE702E008C8121F92
:1020300008C1002AFAD170477047002001E001C1B1
:10204000121F002AFBD17047FFF7A6FBFFF77EFFA8
:10205000FFF752FFFFF73AFFFFF7E4FE06490020C3
:1020600005230860087114310A46086008711439A4
:102070000248FEF7B3FBFEE7B00000200800002096
:10208000000000000102030401020304060708091E
:102090000006101600061016B820000800000020E8
:1020A000080000002A200008C020000808000020C6
:1020B000D00400003A200008000000000024F400D2
:040000050800018965
:00000001FF
