:020000040800F2
:10000000E00400209D010008131600081F150008D9
:1000100011160008A90300082517000800000000B9
:10002000000000000000000000000000371600087B
:100030007904000800000000351600083916000891
:10004000B7010008B7010008B7010008B7010008B0
:10005000B7010008B7010008B7010008B7010008A0
:10006000B7010008B7010008B7010008B701000890
:10007000B7010008B7010008B7010008B701000880
:10008000B7010008B701000869020008B7010008BD
:10009000B7010008B7010008B7010008B701000860
:1000A000B7010008B7010008B7010008B701000850
:1000B000B7010008B7010008B7010008B701000840
:1000C000B7010008B7010008B7010008B701000830
:1000D000B7010008B7010008B7010008B701000820
:1000E000B7010008B7010008B7010008B701000810
:1000F000B7010008B7010008B7010008B701000800
:10010000B7010008B7010008B7010008B7010008EF
:10011000B7010008B7010008B7010008B7010008DF
:10012000AD030008B7010008B7010008B7010008D7
:10013000B7010008B7010008B7010008B7010008BF
:10014000B7010008B7010008B7010008B7010008AF
:10015000B7010008B7010008B7010008B70100089F
:10016000B7010008B7010008B7010008B70100088F
:10017000B7010008B7010008B7010008000000003F
:10018000B7010008B7010008DFF80CD000F018F83C
:100190000048004745170008E00400200648804753
:1001A00006480047FEE7FEE7FEE7FEE7FEE7FEE75C
:1001B000FEE7FEE7FEE7FEE7D1160008890100082A
:1001C000064C074D06E0E06840F0010394E80700A4
:1001D00098471034AC42F6D3FFF7DAFF9C170008BB
:1001E000BC17000810B50146806B026C12F0500F6E
:1001F00005D0806BC26CBDE8104008461047016C0A
:1002000041F40071016401688A6812F0405F17D1FF
:100210008269AAB9CA6A12F4700F02D08A685205BC
:100220000ED44A6822F020024A60016C21F48071E9
:100230000164016CC90403D4016C41F00101016443
:1002400000F0C6F910BD10B5806B40210164416C0F
:1002500041F00401416400F0BDF910BD10B5806BA0
:1002600000F0B7F910BD0000014800F0B4B900007B
:100270000C0000204A4910B5D1F8042322F4403282
:10028000C1F80423D1F8042343681A43C1F80423B6
:1002900001684A6822F480724A6001684A6803690A
:1002A00042EA03224A6001684A6822F040724A60CA
:1002B00001684A6883681A434A6001688A6822F4C0
:1002C00000628A6001688A68C3681A438A60816A2A
:1002D0006FF07062D14201688A6822F070628A60B1
:1002E00001688A680CD0836A1A438A6001688A6848
:1002F00022F040528A6001688A68C36A1A4301E0AA
:1003000022F040528A6001688A6822F002028A6004
:1003100001688A68836942EA43028A60016A0029A7
:1003200001684A6815D042F400624A6001684A6870
:1003300022F460424A6001684B684FF46044426AAC
:1003400094FAA4F4B4FA84F4521EA24013434B600E
:1003500002E022F400624A600168CA6A22F4700274
:10036000CA620168CA6A838B0E4C04EB03531A43BA
:10037000CA6201688A6822F400728A6001688A6829
:10038000036B42EA43228A6001688A6822F4806231
:100390008A6001688A68406942EA8020886010BDEE
:1003A000002001400000F0FFFEE7000010B5064805
:1003B00000F09EFA054800F00FFBBDE81040052252
:1003C0000349014800F016BA0C0000205400002038
:1003D000B400002001681823CAB2103AB2FBF3F24D
:1003E000054B6FF30901032A9B5CC36500D9091D06
:1003F00081650846704700009417000810B5014653
:1004000000208B698A6A4FF0C07453B1B3F5005F66
:1004100015D072B1012A0CD0022A0AD0032A09D1C0
:1004200004E01AB1012A06D0022A03D1C96AC9011F
:1004300000D5012010BDC96AA142FAD010BD002A22
:10044000F7D0012AF2D0022AF3D0032AF3D010BD4C
:1004500030B50468256825F480252560046863604C
:100460008368402B036803D099600068C26030BD88
:100470009A600068C16030BD7047FEE770470000B9
:1004800078B50024009490F83C20012A19D001226C
:1004900080F83C200A6807230568092A13D9EE680A
:1004A0000A3A02EB420293409E43EE600B788A6860
:1004B0000A3B03EB43039A400368DD682A43DA6092
:1004C00010E0022078BD2E6902EB420293409E4369
:1004D0002E610A788B6802EB42029340026815692C
:1004E0002B4313614A681F23072A13D205686E6BDA
:1004F000521E02EB820293409E436E630B790A8880
:100500005B1E92B203EB83039A4003685D6B2A4340
:100510005A6327E005680D2A12D22E6BD21F02EB18
:10052000820293409E432E630B790A88DB1F92B2AE
:1005300003EB83039A4003681D6B2A431A6311E09F
:10054000EE6A0D3A02EB820293409E43EE620B7913
:100550000A880D3B92B203EB83039A400368DD6A7D
:100560002A43DA62174A0368934208D10B68122BB8
:1005700005D1D2F8043343F48003C2F8043303688E
:1005800093421AD10B68102B01D0112B15D1D2F840
:10059000043343F40003C2F80433096810290CD172
:1005A00009490A4A0968B1FBF2F101EB81014900EE
:1005B00000E0491E00910029FBD180F83C4000205A
:1005C00078BD0000002001400400002040420F00E0
:1005D00070477047704770B504460068016842680C
:1005E000C1F34001C2F3401251B34AB3216CC906B2
:1005F00003D4216C41F400712164816811F0405FE3
:1006000017D1A169A9B9C16A11F4700F02D081682C
:1006100049050ED4416821F020014160206C20F48E
:1006200080702064206CC00403D4206C40F0010072
:1006300020642046FFF7CCFF21686FF012000860AD
:10064000206801684268C1F38001C2F3C01289B317
:1006500082B3216CC90603D4216C41F4005121649A
:10066000816811F4401F1ED1816B11F4401F02D02C
:100670008168490517D44168490514D4816811F08F
:10068000405F10D1A16971B9416821F080014160DA
:10069000206C20F480502064206CC00503D4206CB2
:1006A00040F0010020642046FFF7E8FE21686FF06B
:1006B0000C00086020680168426811F0010FC2F365
:1006C00080120ED06AB10068C0070AD0206C40F4D6
:1006D00080302064204600F046F821686FF0010069
:1006E0000860206801684268C1F34011C2F380626B
:1006F00000290DD0002A0BD0616C41F00201616429
:100700006FF0200505602046FFF764FF2068056054
:1007100070BD70B504004FF0000503D0206C0026BA
:1007200010B107E0012070BD666484F83C6020468B
:1007300000F01AF8206CC00610D4206C20F4885009
:1007400040F0020020642046FFF794FD6664206CB0
:1007500020F0020040F00100206400E0012584F850
:100760003C60284670BD704770B5064600681C495D
:1007700086B0884231D11B480025016841F4807160
:1007800001600068694600F48070059003200090C5
:10079000CDE90105144800F097FA154C1348C4E957
:1007A00000050015A560C4E90350400060618000A9
:1007B000A0614011C4E907052046656200F0E0F938
:1007C00008B1FFF75AFEB463002211461220A66357
:1007D00000F0C6FB122000F0B7FB06B070BD0000B1
:1007E00000200140443802400000024010640240F2
:1007F00054000020F8B50D4600210446009190F801
:100800003C00012807D0012084F83C002068836860
:10081000DB0702D011E00220F8BD836843F001033A
:1008200083602D482D4B0068B0FBF3F000EB4000D7
:1008300000E0401E00900028FBD120688368DB07A1
:1008400048D0236C40F20166B34343F480732364C1
:100850004068400505D5206C20F4005040F48050DD
:100860002064206CC00404D5606C20F00600606435
:1008700000E0616484F83C10A16B1948C863A16B67
:1008800018480864A16B1848C86421686FF02200FA
:1008900008602068416841F080614160206881689B
:1008A00041F480718160216813462A464C31A06B67
:1008B00000F0CEF90D49D1F80403C006206801D03C
:1008C000884207D1816811F0405F03D1816841F00F
:1008D000804181600020F8BD0400002040420F00EC
:1008E000E50100085D020008470200080020014001
:1008F00010B50446002094F83C1001290CD00121C9
:1009000084F83C1021688A6822F001028A6021681C
:100910008A68D20702D013E0022010BD886820F454
:1009200080708860A06B00F00FF821684A6822F0A0
:1009300080624A60216C21F4885141F001012164F8
:10094000002184F83C1010BD2DE9F0410446876D6C
:1009500000F092FA064694F835000025022806D0E9
:100960008020606584F834500120BDE8F081206863
:10097000016821F0160101602068416921F08001C1
:100980004161206C08B9A06C20B12068016821F099
:10099000080101602068016821F0010101600BE09D
:1009A00000F06AFA801B052806D92020606504F84B
:1009B000345F03206070D8E720680068C007EFD17B
:1009C00094F85C103F208840B86004F8345F012040
:1009D00060700020C9E700002DE9F84304464FF09D
:1009E0000008CDF8008064484FF41651A56D0068EA
:1009F000B0FBF1F72E6894F85C10082000FA01F1C2
:100A000031420FD021680A6852070BD50A6822F0DC
:100A100004020A6094F85C108840A860606D40F0A1
:100A20000100606594F85C1054488840304208D05A
:100A300021684969090604D5A860606D40F002008C
:100A400060654E4894F85C10C01C8840304208D065
:100A500021680968890704D5A860606D40F004002A
:100A6000606594F85C1010208840304218D02168EE
:100A70000968090714D5A86020680168490304D5EE
:100A80000068000308D5A16C07E00168C90503D41C
:100A9000016821F008010160216C09B120468847F6
:100AA00094F85C102020884030424FF0010631D08D
:100AB00021680968C9062DD5A86094F83500052875
:100AC0002068016806D0490347D5006800031DD49B
:100AD000616C1CE021F0160101602068416921F081
:100AE00080014161206C08B9A06C20B120680168C8
:100AF00021F00801016094F85C103F208840A86054
:100B000084F8348084F83560216D1FE0E16B09B111
:100B100020468847606D00282BD0606DC00714D038
:100B2000052084F835002068016821F0010101608A
:100B30000098401C0090B84203D820680068C007A5
:100B4000F6D184F8348084F83560E16C002910D047
:100B500001B02046BDE8F04308470168C905D5D477
:100B6000016821F01001016084F8348084F8356058
:100B7000CCE7BDE8F88300000400002001008000FD
:100B80002DE9F041044600F077F906465CB10025F6
:100B900084F83450022084F835002068016821F080
:100BA000010101600DE00120BDE8F08100F064F971
:100BB000801B052805D920206065032084F83500B6
:100BC000F2E720680068C007F0D1226811681F486A
:100BD0000140D4E901031843D4E9033633431843F1
:100BE00063691843A3691843E3691843236A1843E8
:100BF0000843616A042903D1D4E90B13194308435C
:100C0000106020684069666A20F0070130460E4394
:100C1000012704280AD1A06A06432046FFF7EEFB0D
:100C200020B14020606584F83570BCE720684661DB
:100C30002046FFF7CFFB94F85C203F219140816074
:100C4000656584F835700020AEE700003F8010F045
:100C50002DE9F0410446866D90F834000025012806
:100C60000DD0012084F8340094F835700020012F55
:100C700007D084F8340002252846BDE8F081022020
:100C8000FBE7022784F8357060652046FFF7E0FB3C
:100C900094F85C103F208840B0602068016841F003
:100CA000160101602068416941F080014161206CBA
:100CB00020B12068016841F00801016020680168E6
:100CC00041F001010160D7E72DE9F84FDFF87CB171
:100CD00000224FF001084FF0030A4FF00F090BF10B
:100CE000040E00BF0B6808FA02F42340A3426ED141
:100CF0004D68022D01D0122D0ED1D50800EB850CC8
:100D0000DCF820505607F70E09FA07F6B5430E69CE
:100D1000BE402E43CCF82060066855000F790AFAD1
:100D200005FC07F0030726EA0C06AF4037430760CF
:100D30004E68012E05D0022E03D0112E01D0122EA6
:100D40000ED18668CF6826EA0C06AF40374387602D
:100D50004668A6430C79C4F30014944034434460BD
:100D6000C6688C6826EA0C06AC403443C4604C6804
:100D7000E40065D5364C256845F480452560246837
:100D800022F0030504F480440094324C2E19D6F866
:100D9000084895072F0F09FA07F5AC432E4DA842D6
:100DA00001D1002524E02D4DA84201D101251FE0ED
:100DB0002B4DA84201D102251AE02A4DA84201D1AB
:100DC000032515E0284DA84202D1042510E037E0A4
:100DD000264DA84201D105250AE0254DA84201D1A2
:100DE000062505E0234DA84201D1072500E008258E
:100DF000BD402543C6F80858DBF800405D464E6804
:100E00009C43F60300D51C432C60DEF80040754679
:100E10004E689C43B60300D51C432C600B4D08352F
:100E20002C684E689C43F60200D51C432C60074D8D
:100E30000C352C684E689C43B60200D51C432C60D0
:100E4000521C102AFFF44EAFBDE8F88F003C014061
:100E500044380240003001400000024000040240DB
:100E600000080240000C0240001002400014024042
:100E700000180240001C0240014800687047000052
:100E80000000002002480168491C01607047000012
:100E9000000000200B4810B5016841F400710160AA
:100EA000016841F480610160016841F48071016072
:100EB000032000F075F8002000F006F800F018F8A4
:100EC000002010BD003C024010B5044607484FF416
:100ED0007A710068B0FBF1F000F009FB00222146B6
:100EE000501E00F03DF8002010BD0000040000205E
:100EF00010B5032000F054F8002211466FF00B00EB
:100F000000F02EF8002211466FF00A0000F028F8D9
:100F1000002211466FF0090000F022F8002211466D
:100F2000501F00F01DF800221146101F00F018F8A5
:100F300000221146901E00F013F80022BDE8104078
:100F40001146501E00F00CB800F01F020121914024
:100F50004009800000F1E020C0F800117047000057
:100F6000F0B40E4B1B680C46C3F30223C3F1070514
:100F7000042D00D90425191D072901D2002300E002
:100F8000DB1E012606FA05F1491E214099409E40CC
:100F9000761E16403143F0BC00F03CBB0CED00E087
:100FA000064900F0070208684FF6FF03184040EAC0
:100FB0000220034A10430860704700000CED00E077
:100FC0000000FA052DE9F047DFF8649105460F4669
:100FD000D9F8000000F00F01F8B28046B94208D2FB
:100FE000014689F80010D9F8000000F00F00B8425F
:100FF00074D128784F4C800705D52068A96820F067
:10100000F000084320602878C00759D04949686833
:10101000083901281AD002281BD0032819D00968E2
:10102000890700295ADA216821F003010143216070
:10103000FFF722FF6968064641F28830012911D086
:1010400002291DD00329824627D035E0096889038B
:10105000E7E709688901E4E7FFF70EFF811B5145C7
:1010600001D926E082462068C0F381000128F3D12F
:1010700026E000BFFFF700FF811B514501D918E0B2
:1010800082462068C0F381000228F3D118E000BF37
:10109000FFF7F2FE811B51450BD82068C0F3810099
:1010A0000328F5D10CE000BFFFF7E6FE811B514598
:1010B00002D90320BDE8F087206810F00C0FF3D1AF
:1010C000D9F80010484601F00F01B94208D980F85C
:1010D0000080006800F00F00B84201D00120E9E76D
:1010E0002878400705D52068E96820F4E0500843D7
:1010F00020602878000706D52068296920F4604020
:1011000040EAC100206000F021F82168F02292FA44
:10111000A2F201F0F001B2FA82F2D140064A515C2B
:10112000C840064908600020FFF7CEFE0020C1E756
:10113000003C0240083802408417000804000020E8
:1011400001480068704700000400002030B51948CD
:10115000006810F00C01184812D0184C04290ED069
:1011600008290DD11349091F0A6802F03F030A68D4
:10117000550247F6C07204D5B4FBF3F003E02046F5
:1011800030BDB0FBF3F00B680968134092FAA2F28D
:10119000B2FA82F2D34058434FF4403292FAA2F2AC
:1011A00001F44031B2FA82F2D140491C4900B0FB4F
:1011B000F1F030BD083802400024F40040787D0191
:1011C0002DE9F84F0546DFF8FC920078A9F1040BF1
:1011D000C007ABF1040449D0D9F800104846C1F368
:1011E0008101012908D00068C0F3810002280AD1DA
:1011F000DBF80000400206D52068800336D5686819
:1012000000286ED032E06868B0F5803F10D0B0F5AD
:10121000A02F206810D020F480302060206820F4B7
:10122000802020606868A0B1FFF726FE06460CE02B
:10123000206840F48030F4E740F480202060F7E735
:10124000FFF71AFE801B642871D820688003F7D549
:101250000CE0FFF711FE064605E000BFFFF70CFEAD
:10126000801B6428F0D820688003F7D42878964F34
:1012700080074FF0010A4FF0000841D5D9F800105F
:10128000484611F00C0F08D00068C0F38100022816
:101290000AD1DBF80000400206D42068800713D58D
:1012A000E86801281DD10FE0E868D8B1C7F800A0B0
:1012B000FFF7E2FD064604E0FFF7DEFD801B022893
:1012C000C2D820688007F7D52068F82292FAA2F2E7
:1012D0002969B2FA82F220F0F800914008432060B8
:1012E0000EE0ECE0C7F80080FFF7C6FD064604E01C
:1012F000FFF7C2FD801B022819D820688007F7D4A9
:101300002878000724D57148696989B1C0F800A020
:10131000FFF7B2FD064604E0FFF7AEFD801B022892
:1013200005D868486C3000688007F5D510E07AE091
:10133000C0F80080FFF7A0FD064604E0FFF79CFD23
:10134000801B02286FD85F486C3000688007F5D496
:101350002878400753D55B483830016841F0805108
:101360000160006800F0805000905948016841F425
:1013700080710160FFF780FD064604E0FFF77CFD09
:10138000801B02284FD852480068C005F6D54D4E44
:10139000A868683601280FD00528306810D020F0E2
:1013A00001003060306820F004003060A868B8B1F7
:1013B000FFF762FD00900FE0306840F00100F4E7B5
:1013C00040F004003060F7E7FFF756FD0099411A3E
:1013D00041F2883081426AD830688007F4D50EE047
:1013E000FFF74AFD009007E0FFF746FD0099411A1C
:1013F00041F2883081425AD830688007F4D4A86915
:10140000E8B3D9F80010C1F38101022957D00228AE
:10141000C7F8608003D0FFF72FFD05464AE0FFF7CD
:101420002BFD064605E042E0FFF726FD801B022863
:101430003DD820688001F7D4D5E90701084347F675
:10144000C07292FAA2F2696AB2FA82F29140AA6A72
:101450004FF0FF3303EB52024FF4403393FAA3F300
:10146000B3FA83F39A40114308434FF0706292FA43
:10147000A2F2E96AB2FA82F29140084300E01CE06D
:10148000CBF80000C7F860A0FFF7F6FC054604E0C3
:10149000FFF7F2FC401B022809D820688001F7D52D
:1014A0000BE000BFFFF7E8FC401B022802D9032035
:1014B000BDE8F88F20688001F4D40020F8E701200F
:1014C000F6E700000838024000004742800E47421D
:1014D000007000404FF0E0210428086903D020F09C
:1014E00004000861704740F00400FAE7704710B547
:1014F000401EB0F1807F01D3012010BD4FF0E024E9
:1015000060610F21601700F085F80020A0610720BE
:101510002061002010BD10B5FFF7E8FF10BDFEE709
:101520007FB5274825490025C0E90015856005617C
:1015300024490562C0E90A1501240526C560C0E9F1
:10154000064604634461FFF7E4F808B1FEF795FF2F
:1015500010208DE8310069461948FEF791FF08B167
:10156000FEF78BFF1120009002200190694614487D
:10157000FEF786FF08B1FEF780FF122000900320DF
:10158000019069460E48FEF77BFF08B1FEF775FF34
:101590000420CDE9005069460948FEF771FF08B103
:1015A000FEF76BFFCDE9004669460548FEF768FF88
:1015B000002801D0FEF761FF7FBD00000020014040
:1015C0000C0000200100000F094808B5016841F433
:1015D000800101600068002200F480000090114644
:1015E0003820FFF7BDFCBDE808403820FFF7ACBC51
:1015F00030380240054808B5016841F0010101603A
:10160000006800F00100009008BD00003038024082
:10161000FEE770470907090E002806DA00F00F0000
:1016200000F1E02080F8141D704700F1E02080F800
:10163000001470477047704710B5FFF723FCBDE8F2
:101640001040FFF768BF000010B51F4892B000249B
:10165000016841F080510160006800F080501190F5
:101660001A48016841F4804101600068069400F462
:1016700080401190022000900120039010200490DF
:101680006846FFF79DFD00B1FEE70F20CDE90C0491
:101690000E940F9400210CA81094FFF793FC00B156
:1016A000FEE7FFF74DFD4FF47A71B0FBF1F0FFF765
:1016B0001EFF0420FFF70EFF00221146501EFFF709
:1016C0004FFC12B010BD00004038024000700040D6
:1016D0001048016841F4700101600F48016841F051
:1016E000010101600C4A00210832116002680B4BB5
:1016F0001A400260031D0A4A1A60026822F480221E
:10170000026005480C3001600249580680390860C3
:101710007047000088ED00E000380240FFFFF6FE51
:1017200010300024FEE702E008C8121F08C1002A9A
:10173000FAD170477047002001E001C1121F002A52
:10174000FBD170470C4800240470FFF7A3FBFFF7A0
:101750007BFFFFF74FFFFFF737FFFFF7E1FE07487B
:1017600005220649046004711430046004710448C1
:10177000FFF740F8FEE7000008000020B40000205A
:101780000C00002000000000010203040102030419
:10179000060708090006101600061016BC170008F8
:1017A000000000200C00000026170008C8170008E1
:1017B0000C000020D40400003617000800000000D0
:0817C0000024F4000000000009
:040000050800018965
:00000001FF
